:020000040800F2
:1000000000000220E9530008B1510008B95100086E
:10001000C1510008C9510008D1510008000000007A
:10002000000000000000000000000000D95100089E
:10003000E751000800000000F551000803520008D5
:10004000395400083954000839540008395400085C
:10005000395400083954000839540008395400084C
:10006000395400083954000839540008395400083C
:10007000395400083954000839540008395400082C
:1000800039540008395400083954000800000000B1
:1000900000000000000000000000000039540008CB
:1000A00039540008395400083954000839540008FC
:1000B00039540008395400083954000839540008EC
:1000C00039540008395400083954000839540008DC
:1000D00039540008115200082552000800000000A1
:1000E0003954000839540008395400080000000051
:1000F000000000000000000000000000395400086B
:100100000000000039540008395400083954000830
:1001100000000000000000000000000000000000DF
:10012000395400083954000839540008395400087B
:10013000395400080000000000000000000000002A
:10014000000000000000000000000000395400081A
:10015000395400083954000839540008395400084B
:100160003954000839540008000000000000000065
:10017000000000000000000000000000000000007F
:1001800000000000395400080000000000000000DA
:0801900039540008395400083D
:1001A00010B5054C237833B9044B13B10448AFF3B1
:1001B00000800123237010BDD40100200000000046
:1001C00020BC000808B5034B1BB103490348AFF33B
:1001D000008008BD00000000D801002020BC0008FD
:1001E00001F0FF01102A2BDB10F0070F08D010F8E8
:1001F000013B013A8B422DD010F0070F42B3F6D1EC
:10020000F0B441EA012141EA014122F007047FF004
:1002100000070023F0E80256083C85EA010586EA5B
:10022000010685FA47F5A3FA87F586FA47F6A5FA97
:1002300087F68EB9EED1F0BC01F0FF0102F00702A3
:1002400032B110F8013B013A83EA010313B1F8D14E
:100250000020704701387047002D06BF354603382F
:10026000073815F0010F07D1013015F4807F02BF68
:10027000013015F4C03F0130F0BC0138704700BFB9
:10028000034613F8012B002AFBD1181A01387047D6
:1002900081F0004102E000BF83F0004330B54FEA37
:1002A00041044FEA430594EA050F08BF90EA020FA4
:1002B0001FBF54EA000C55EA020C7FEA645C7FEA37
:1002C000655C00F0E2804FEA5454D4EB5555B8BF5A
:1002D0006D420CDD2C4480EA020281EA030382EACB
:1002E000000083EA010180EA020281EA0303362D5D
:1002F00088BF30BD11F0004F4FEA01314FF4801C30
:100300004CEA113102D0404261EB410113F0004F41
:100310004FEA03334CEA133302D0524263EB4303F8
:1003200094EA050F00F0A780A4F10104D5F1200E96
:100330000DDB02FA0EFC22FA05F2801841F10001F1
:1003400003FA0EF2801843FA05F359410EE0A5F1C5
:1003500020050EF1200E012A03FA0EFC28BF4CF0F6
:10036000020C43FA05F3C01851EBE37101F00045AC
:1003700007D54FF0000EDCF1000C7EEB00006EEBB9
:100380000101B1F5801F1BD3B1F5001F0CD3490843
:100390005FEA30004FEA3C0C04F101044FEA44529A
:1003A00012F5800F80F09A80BCF1004F08BF5FEA21
:1003B000500C50F1000041EB045141EA050130BD01
:1003C0005FEA4C0C404141EB0101013C28BFB1F513
:1003D000801FE9D291F0000F04BF01460020B1FA5E
:1003E00081F308BF2033A3F10B03B3F120020CDA31
:1003F0000C3208DD02F1140CC2F10C0201FA0CF00F
:1004000021FA02F10CE002F11402D8BFC2F1200C73
:1004100001FA02F120FA0CFCDCBF41EA0C01904029
:10042000E41AA2BF01EB0451294330BD6FEA040472
:100430001F3C1CDA0C340EDC04F11404C4F120025D
:1004400020FA04F001FA02F340EA030021FA04F36F
:1004500045EA030130BDC4F10C04C4F1200220FAC6
:1004600002F001FA04F340EA0300294630BD21FA04
:1004700004F0294630BD94F0000F83F4801306BFCA
:1004800081F480110134013D4EE77FEA645C18BFBE
:100490007FEA655C29D094EA050F08BF90EA020F55
:1004A00005D054EA000C04BF1946104630BD91EA4D
:1004B000030F1EBF0021002030BD5FEA545C05D150
:1004C0004000494128BF41F0004130BD14F580048F
:1004D0003CBF01F5801130BD01F0004545F0FE4103
:1004E00041F470014FF0000030BD7FEA645C1ABF38
:1004F000194610467FEA655C1CBF0B46024650EA6F
:10050000013406BF52EA033591EA030F41F400219A
:1005100030BD00BF90F0000F04BF0021704730B520
:100520004FF4806404F132044FF000054FF00001F5
:1005300050E700BF90F0000F04BF0021704730B5B6
:100540004FF4806404F1320410F0004548BF40428B
:100550004FF000013EE700BF42004FEAE2014FEAE0
:1005600031014FEA02701FBF12F07F4393F07F4FBB
:1005700081F06051704732F07F4208BF704793F0BE
:100580007F4F04BF41F40021704730B54FF46074D1
:1005900001F0004521F000411CE700BF50EA0102D4
:1005A00008BF704730B54FF000050AE050EA01027D
:1005B00008BF704730B511F0004502D5404261EBED
:1005C00041014FF4806404F132045FEA915C3FF42E
:1005D000D8AE4FF003025FEADC0C18BF03325FEACB
:1005E000DC0C18BF033202EBDC02C2F1200300FA7C
:1005F00003FC20FA02F001FA03FE40EA0E0021FAA1
:1006000002F11444BDE600BF70B54FF0FF0C4CF48E
:10061000E06C1CEA11541DBF1CEA135594EA0C0F40
:1006200095EA0C0F00F0DEF82C4481EA030621EA7B
:100630004C5123EA4C5350EA013518BF52EA0335B6
:1006400041F4801143F4801338D0A0FB02CE4FF068
:100650000005E1FB02E506F00042E0FB03E54FF098
:100660000006E1FB03569CF0000F18BF4EF0010E90
:10067000A4F1FF04B6F5007F64F5407404D25FEA8C
:100680004E0E6D4146EB060642EAC62141EA55513F
:100690004FEAC52040EA5E504FEACE2EB4F1FD0C81
:1006A00088BFBCF5E06F1ED8BEF1004F08BF5FEAFF
:1006B000500E50F1000041EB045170BD06F00046B1
:1006C00046EA010140EA020081EA0301B4EB5C045E
:1006D000C2BFD4EB0C0541EA045170BD41F4801156
:1006E0004FF0000E013C00F3AB8014F1360FDEBF7B
:1006F000002001F0004170BDC4F10004203C35DA57
:100700000C341BDC04F11404C4F1200500FA05F3D9
:1007100020FA04F001FA05F240EA020001F000427A
:1007200021F0004110EBD37021FA04F642EB0601F0
:100730005EEA430E08BF20EAD37070BDC4F10C041A
:10074000C4F1200500FA04F320FA05F001FA04F2DE
:1007500040EA020001F0004110EBD37041F10001CA
:100760005EEA430E08BF20EAD37070BDC4F12005D5
:1007700000FA05F24EEA020E20FA04F301FA05F23D
:1007800043EA020321FA04F001F0004121FA04F2E5
:1007900020EA020000EBD3705EEA430E08BF20EAB5
:1007A000D37070BD94F0000F0FD101F000464000EF
:1007B00041EB010111F4801F08BF013CF7D041EA71
:1007C000060195F0000F18BF704703F00046520075
:1007D00043EB030313F4801F08BF013DF7D043EA46
:1007E0000603704794EA0C0F0CEA135518BF95EAFC
:1007F0000C0F0CD050EA410618BF52EA4306D1D183
:1008000081EA030101F000414FF0000070BD50EAA1
:10081000410606BF1046194652EA430619D094EA2B
:100820000C0F02D150EA013613D195EA0C0F05D115
:1008300052EA03361CBF104619460AD181EA030169
:1008400001F0004141F0FE4141F470014FF0000021
:1008500070BD41F0FE4141F4780170BD70B54FF0BC
:10086000FF0C4CF4E06C1CEA11541DBF1CEA13553C
:1008700094EA0C0F95EA0C0F00F0A7F8A4EB05041E
:1008800081EA030E52EA03354FEA013100F0888015
:100890004FEA03334FF0805545EA131343EA1263DE
:1008A0004FEA022245EA111545EA10654FEA002693
:1008B0000EF000419D4208BF964244F1FD0404F54C
:1008C000407402D25B084FEA3202B61A65EB0305A8
:1008D0005B084FEA32024FF480104FF4002CB6EB65
:1008E000020E75EB030E22BFB61A754640EA0C00E5
:1008F0005B084FEA3202B6EB020E75EB030E22BF25
:10090000B61A754640EA5C005B084FEA3202B6EB65
:10091000020E75EB030E22BFB61A754640EA9C0024
:100920005B084FEA3202B6EB020E75EB030E22BFF4
:10093000B61A754640EADC0055EA060E18D04FEAB2
:10094000051545EA16754FEA06164FEAC30343EA52
:1009500052734FEAC2025FEA1C1CC0D111F4801F1F
:100960000BD141EA00014FF000004FF0004CB6E718
:1009700011F4801F04BF01430020B4F1FD0C88BFB7
:10098000BCF5E06F3FF6AFAEB5EB030C04BFB6EBC2
:10099000020C5FEA500C50F1000041EB045170BDB5
:1009A0000EF0004E4EEA113114EB5C04C2BFD4EBE2
:1009B0000C0541EA045170BD41F480114FF0000E66
:1009C000013C90E645EA060E8DE60CEA135594EAE2
:1009D0000C0F08BF95EA0C0F3FF43BAF94EA0C0FE5
:1009E0000AD150EA01347FF434AF95EA0C0F7FF45A
:1009F00025AF104619462CE795EA0C0F06D152EAAE
:100A000003353FF4FDAE1046194622E750EA410691
:100A100018BF52EA43067FF4C5AE50EA41047FF4A2
:100A20000DAF52EA43057FF4EBAE12E74FF0FF3C07
:100A300006E000BF4FF0010C02E000BF4FF0010CD8
:100A40004DF804CD4FEA410C7FEA6C5C4FEA430C51
:100A500018BF7FEA6C5C1BD001B050EA410C0CBFA0
:100A600052EA430C91EA030F02BF90EA020F002002
:100A7000704710F1000F91EA030F58BF994208BF69
:100A800090422CBFD8176FEAE37040F00100704726
:100A90004FEA410C7FEA6C5C02D150EA013C07D17D
:100AA0004FEA430C7FEA6C5CD6D152EA033CD3D0C8
:100AB0005DF8040B704700BF8446104662468C46C2
:100AC0001946634600E000BF01B5FFF7B7FF0028F5
:100AD00048BF10F1000F01BD4DF808EDFFF7F4FF1E
:100AE0000CBF012000205DF808FB00BF4DF808EDA9
:100AF000FFF7EAFF34BF012000205DF808FB00BFCC
:100B00004DF808EDFFF7E0FF94BF012000205DF8ED
:100B100008FB00BF4DF808EDFFF7CEFF94BF0120A2
:100B200000205DF808FB00BF4DF808EDFFF7C4FF9B
:100B300034BF012000205DF808FB00BF4FEA410CE4
:100B40007FEA6C5C02D150EA013C0AD14FEA430CC7
:100B50007FEA6C5C02D152EA033C02D14FF0000004
:100B600070474FF0010070474FEA410212F5001242
:100B700015D211D56FF47873B3EB625212D94FEAE4
:100B8000C12343F0004343EA505311F0004F23FACE
:100B900002F018BF404270474FF00000704750EA23
:100BA000013005D111F0004008BF6FF000407047E0
:100BB0004FF00000704700BF4A0011D212F500123A
:100BC00011D20DD56FF47873B3EB62520ED44FEAA5
:100BD000C12343F0004343EA505323FA02F0704725
:100BE0004FF00000704750EA013002D14FF0FF3063
:100BF00070474FF0000070474FEA4102B2F1E04306
:100C000024BFB3F5001CDCF1FE5C0DD901F0004CF3
:100C10004FEAC0024CEA5070B2F1004F40EB830043
:100C200008BF20F00100704711F0804F21D113F16F
:100C30003872BCBF01F00040704741F480114FEAA8
:100C40005252C2F11802C2F1200C10FA0CF320FA31
:100C500002F018BF40F001004FEAC1234FEAD3234E
:100C600003FA0CFC40EA0C0023FA02F34FEA4303B8
:100C7000CCE77FEA625307D150EA01331EBF4FF041
:100C8000FE4040F44000704701F0004040F0FE405C
:100C900040F40000704700BF53B94AB9002908BFAB
:100CA00000281CBF4FF0FF314FF0FF3000F0BEB9FD
:100CB000ADF1080C6DE904CE00F03CF8DDF804E07D
:100CC000DDE9022304B0704738B500220023044652
:100CD0000D46FFF70BFF28B920462946BDE83840EE
:100CE00000F00AB8204605F1004100F005F8404246
:100CF00061EB410138BD00BFD0B50C4B0022064668
:100D00000F46FFF781FCFFF757FF0446FFF702FC91
:100D1000074B0022FFF778FC02460B463046394667
:100D2000FFF7BAFAFFF748FF2146D0BD0000F03DBB
:100D30000000F0412DE9F047089D8E4604468846A4
:100D4000002B4AD18A42174662D9B2FA82F64EB1D6
:100D5000C6F1200301FA06F820FA03F3B74043EA8C
:100D60000808B4404FEA174E1FFA87FCB8FBFEF1A3
:100D7000230C0EFB118843EA084301FB0CF29A4254
:100D800009D9FB1801F1FF3080F0EA809A4240F265
:100D9000E78002393B449A1AA3B2B2FBFEF00EFB85
:100DA000102243EA024300FB0CFC9C4509D9FB18C6
:100DB00000F1FF3280F0D6809C4540F2D3803B4466
:100DC000023840EA0140A3EB0C0300211DB1F340BF
:100DD0000022C5E90032BDE8F0878B4205D90DB18C
:100DE000C5E9000100210846F5E7B3FA83F10029BF
:100DF00046D1734502D3824200F20581841A6EEB1C
:100E0000030201209046002DE5D0C5E90048E2E745
:100E1000002A00F09080B2FA82F6002E40F0A48002
:100E20008A1A030C4FEA174E80B2BCB20121B2FB02
:100E3000FEFC0EFB1C2243EA024304FB0CF29A4226
:100E400007D9FB180CF1FF3802D29A4200F2E08079
:100E5000C4469B1AB3FBFEF20EFB123340EA034377
:100E600002FB04F49C4207D9FB1802F1FF3002D2C6
:100E70009C4200F2CA8002461B1B42EA0C40A5E7D6
:100E8000C1F120068B4022FA06F71F430EFA01F447
:100E900020FA06F32EFA06FE4FEA1749234300FA1A
:100EA00001F81FFA87FCBEFBF9F01C0C09FB10EEE1
:100EB00044EA0E4400FB0CFEA64502FA01F209D9F1
:100EC0003C1900F1FF3A80F09C80A64540F29980E1
:100ED00002383C44A4EB0E041FFA83FEB4FBF9F382
:100EE00009FB13444EEA044403FB0CFCA44508D957
:100EF0003C1903F1FF3E80F08280A4457FD9023B7C
:100F00003C4443EA0040A4EB0C04A0FB02EC644523
:100F10007346E14662D35FD05DB1B8EB030264EB88
:100F2000090404FA06F622FA01F31E43CC40C5E98F
:100F3000006400214FE7B1FBF2FC010C41EA0E41D5
:100F400080B240EA01423B4638463C46B846BE467F
:100F50002026B1FBF7F1A2EB080241EA0C4166E75B
:100F6000014618E710462CE7C6F120022EFA02F3DC
:100F7000B740B14020FA02F24FEA174E0A43B3FBE2
:100F8000FEF8BCB20EFB1833110C41EA034108FB1A
:100F900004F9B04089454FEA104380B23ED9791830
:100FA00008F1FF3C01D289451FD8A1EB0901B1FB33
:100FB000FEF909FB04F80EFB191192B242EA014254
:100FC000424529D2BA1809F1FF31C4D24245C2D2F2
:100FD000A9F102013A44BEE7F0459DD2BEEB0203FF
:100FE0006CEB070C0138E14696E7A7EB0909494489
:100FF000A8F1020CB1FBFEF909FB04F8DBE773462C
:101000007FE7504666E70846FDE63B44023A33E791
:10101000ACF1020C3B441CE749469CE7A1EB0901FB
:10102000C446B1FBFEF909FB04F8C4E7704700BFF2
:1010300080B485B000AFF860B9607A607968FA680A
:10104000BB681340D2430A401A43FA60BB60FB6896
:1010500018461437BD465DF8047B704780B584B0F0
:1010600000AFF860B9607A607A68B968F868FFF72D
:10107000DFFF034618461037BD4680BD80B582B0FD
:1010800000AF78600B467B8013463B80B7F9023097
:1010900001331946B7F9003001331A467868FFF773
:1010A000DDFF03469BB2013B9BB21BB218460837DB
:1010B000BD4680BD80B483B000AF78607B680122FC
:1010C0009A807B680022DA807B6800221A6000BF69
:1010D0000C37BD465DF8047B704780B582B000AF29
:1010E00078607B68002B16D07B681B68002B08D0CB
:1010F0007B681A687B68DB889B001946104603F002
:101100006BF87B6801229A807B680022DA807B681A
:1011100000221A6000E000BF0837BD4680BD80B5E0
:1011200084B000AF786039603B6842F2107293423D
:1011300002D96FF00F032FE07B68DB881A463B680B
:10114000934228D90421386806F082F90346FB60EF
:10115000FB68002B02D16FF00F031DE07B681B685A
:10116000002B11D07B6819687B68DB889B001A46CE
:10117000F86807F03EFC7B681A687B68DB889B0098
:101180001946104603F028F83B689AB27B68DA806B
:101190007B68FA681A60002318461037BD4680BD88
:1011A00080B584B000AF786039603B6842F210725D
:1011B000934202D96FF00F0352E07B68DB881A4636
:1011C0003B68934205D339687868FFF7A8FF034668
:1011D00046E07B68DB88013BFB600AE07B681A68BD
:1011E000FB689B0013441B68002B06D1FB68013B86
:1011F000FB60FB68002BF1D100E000BFFB6801330E
:10120000FB60FA683B689A4201D23B68FB600421AC
:10121000F86806F01DF90346BB60BB68002B02D1DD
:101220006FF00F031CE07B681B68002B10D07B68FD
:101230001968FB689B001A46B86807F0DAFB7B6800
:101240001A687B68DB889B001946104602F0C4FFD1
:10125000FB689AB27B68DA807B68BA681A60002300
:1012600018461037BD4680BD80B582B000AF7860AB
:1012700039603B68002B04D17868FFF72EFF00230C
:101280001AE07B68DB881A463B6893420CD17B6886
:1012900018683B689B001A46002107F009FB7B6831
:1012A00001229A80002307E07868FFF716FF39686B
:1012B0007868FFF734FF034618460837BD4680BDFF
:1012C00080B584B000AF786039600023FB607A6835
:1012D0003B689A4201D100235AE03B68DB88002B2F
:1012E00011D17B68DB88002B0BD07B6801229A80B0
:1012F0007B6818687B68DB889B001A46002107F032
:10130000D7FA002344E03B68DB88013BBB600AE07E
:101310003B681A68BB689B0013441B68002B06D10E
:10132000BB68013BBB60BB68002BF1D100E000BF94
:10133000BB680133BB603B68B3F904207B689A80CB
:101340007B68DB881A46BB68934208D9B96878681D
:10135000FFF7E5FEF860FB68002B0FD017E07B6815
:101360001A68BB689B00D0187B68DB881A46BB688C
:10137000D31A9B001A46002107F09AFA7B68186876
:101380003B681968BB689B001A4607F032FBFB6894
:1013900018461037BD4680BD80B483B000AF78607A
:1013A0007B68002B01DB7B6801E07B685B421846B1
:1013B0000C37BD465DF8047B704790B585B000AF33
:1013C000786039606FF06D03FB6001217868FFF78A
:1013D000A6FEF860FB68002B1CD17B6818687B6850
:1013E000DB889B001A46002107F062FA7B681C68C4
:1013F0003868FFF7D1FF034623603B68DB0F9BB2E1
:101400001A46D203D31A5B009BB201339BB21AB2C5
:101410007B689A80FB6818461437BD4690BD80B43F
:1014200083B000AF786039607B68DB885B013A6825
:101430009A4201D300230DE07B681A683B685B0980
:101440009B0013441A683B6803F01F0322FA03F35E
:1014500003F0010318460C37BD465DF8047B704766
:1014600080B485B000AF78600023FB6018E07B6833
:101470001A68FB689B0013441B68002B0DD0FB68A7
:101480005B017A681168FA6892000A44126892FA5D
:10149000A2F2B2FA82F2134409E0FB680133FB6066
:1014A0007B68DB881A46FB689342E0D3002318462A
:1014B0001437BD465DF8047B704780B582B000AF3D
:1014C00078607B681A687B68DB881946104601F0F3
:1014D00020FD034618460837BD4680BD80B582B062
:1014E00000AF78607868FFF7E8FF03460733DB0852
:1014F00018460837BD4680BD80B586B000AFF8609D
:10150000B9607A606FF06D037B617B689B087A68D5
:1015100002F00302002A14BF01220022D2B21344B7
:101520003B613969F868FFF79FFE78617B69002BA2
:101530000CD1FB681868FB68DB8819467B68BA68C1
:1015400001F080FD78617B69002B00BF7B69184644
:101550001837BD4680BD80B584B000AFF860B96073
:101560007A60FB681868FB68DB8819467B68BA6894
:1015700001F0A9FD034618461037BD4680BD80B571
:1015800084B000AF786039606FF06D03FB607868FD
:10159000FFF793FF02463B681344BB607B68DB8820
:1015A0005B01BA689A4212D9BB685B09BA6802F05B
:1015B0001F02002A14BF01220022D2B2134419468E
:1015C0007868FFF7ACFDF860FB68002B09D10023B9
:1015D000FB607B6818687B68DB883A68194601F015
:1015E00063FEFB6818461037BD4680BD80B582B0EB
:1015F00000AF786039607B68DB88002B07D07B68A0
:1016000018687B68DB883A68194601F0BEFD002344
:1016100018460837BD4680BD80B485B000AF7860FD
:1016200039607B68DB88FB600DE07B681A68FB68CB
:1016300003F18043013B9B0013441B68002B06D140
:10164000FB68013BFB60FB68002BEED100E000BFB4
:101650003B68DB88BB600DE03B681A68BB6803F140
:101660008043013B9B0013441B68002B06D1BB68E1
:10167000013BBB60BB68002BEED100E000BFFA6805
:10168000BB689A4201D901233AE0BA68FB689A42E2
:1016900032D94FF0FF3333E07B681A68FB6803F1FF
:1016A0008043013B9B0013441A683B681968FB6840
:1016B00003F18043013B9B000B441B689A4201D914
:1016C00001231DE07B681A68FB6803F18043013B3E
:1016D0009B0013441A683B681968FB6803F1804358
:1016E000013B9B000B441B689A4202D24FF0FF3330
:1016F00006E0FB68013BFB60FB68002BCCD10023BC
:1017000018461437BD465DF8047B704780B485B039
:1017100000AF786039607B68DB88FB600DE07B6838
:101720001A68FB6803F18043013B9B0013441B686C
:10173000002B06D1FB68013BFB60FB68002BEED160
:1017400000E000BF3B68DB88BB600DE03B681A68C7
:10175000BB6803F18043013B9B0013441B68002BD3
:1017600006D1BB68013BBB60BB68002BEED100E03B
:1017700000BFFB68002B04D1BB68002B01D1002304
:1017800061E0FA68BB689A4203D97B68B3F9043018
:1017900059E0BA68FB689A4204D93B68B3F904304F
:1017A0005B4250E07B68B3F90430002B06DD3B68F8
:1017B000B3F90430002B01DA012344E03B68B3F9AC
:1017C0000430002B3BDD7B68B3F90430002B36DAA4
:1017D0004FF0FF3337E07B681A68FB6803F1804302
:1017E000013B9B0013441A683B681968FB6803F1CE
:1017F0008043013B9B000B441B689A4203D97B68E2
:10180000B3F904301FE07B681A68FB6803F180437A
:10181000013B9B0013441A683B681968FB6803F19D
:101820008043013B9B000B441B689A4204D27B68B7
:10183000B3F904305B4206E0FB68013BFB60FB68E8
:10184000002BC8D1002318461437BD465DF8047B31
:10185000704780B586B000AF786039603868FFF7B0
:101860009BFD0346FB603B68DB0F9BB21A46D2032D
:10187000D31A5B009BB201339BB21BB2BB82012324
:10188000FB8207F10C033B6107F1100319467868EE
:10189000FFF73CFF034618461837BD4680BD80B5AC
:1018A0008AB000AFF860B9607A606FF06D037B6258
:1018B000FA687B689A4205D1BB687B61FB68BB60B4
:1018C0007B697B60FA68BB689A4207D0B968F868A0
:1018D000FFF7F6FC78627B6A002B66D1FB68012279
:1018E0009A807B68DB883B620DE07B681A683B6A04
:1018F00003F18043013B9B0013441B68002B06D17E
:101900003B6A013B3B623B6A002BEED100E000BF2B
:101910003B6A002B01D1002348E0396AF868FFF7E1
:10192000FEFB78627B6A002B3FD1FB681B68FB6182
:101930007B681A683B6AF969F86901F02CFDB861A7
:101940003B6A9B00FA691344FB612AE0FB68DB8871
:101950001A463B6A93420FD33B6A01331946F86833
:10196000FFF7DDFB78627B6A002B1ED1FB681A68EB
:101970003B6A9B001344FB61FB691A68BB691A440C
:10198000FB691A60FB691B68BA699A428CBF012324
:101990000023DBB2BB613B6A01333B62FB6904336A
:1019A000FB61BB69002BD1D100BF7B6A1846283789
:1019B000BD4680BD80B588B000AFF860B9607A6080
:1019C0006FF06D03FB617B68DB88BB610DE07B68BA
:1019D0001A68BB6903F18043013B9B0013441B68F9
:1019E000002B06D1BB69013BBB61BB69002BEED16B
:1019F00000E000BFBB68DB881A46BB69934203D98D
:101A00006FF00903FB6167E0BB68DB881946F86883
:101A1000FFF785FBF861FB69002B5DD1BB68DB88B4
:101A20001A46BB69934216D2BA68FB689A4212D032
:101A3000FB681A68BB699B00D018BB681A68BB6951
:101A40009B00D118BB68DB881A46BB69D31A9B0080
:101A50001A4606F0CEFFFB68DA88BB68DB889A423C
:101A600010D9FB681A68BB68DB889B00D018FB683C
:101A7000DB881A46BB68DB88D31A9B001A46002114
:101A800006F016FFFB681868BB6819687B681A685F
:101A9000BB6901F0CBFC78617B69002B19D0FB6836
:101AA0001A68BB699B00D018FB681A68BB699B0069
:101AB000D118FB68DB881A46BB69D31A7A6902F031
:101AC000B4F878617B69002B03D06FF00903FB61E8
:101AD00002E0FB6801229A80FB6918462037BD4668
:101AE00080BD80B588B000AFF860B9607A603B60B7
:101AF000BB68B3F90430BB61BB68B3F904301A4664
:101B00007B68B3F9043002FB03F33A6802FB03F38A
:101B1000002B2BDA7968B868FFF77EFD78617B6966
:101B2000002B12DB7A68B968F868FFF743FFF861A9
:101B3000FB69002B27D17B69002B02D0BB691AB24D
:101B400000E00122FB689A801DE0BA687968F868B5
:101B5000FFF730FFF861FB69002B14D1BB699BB222
:101B60005B429BB21AB2FB689A800CE07A68B96853
:101B7000F868FFF794FEF861FB69002B03D1BB699D
:101B80001AB2FB689A80FB6918462037BD4680BDB3
:101B900080B584B000AFF860B9607A6001237A68DC
:101BA000B968F868FFF79DFF034618461037BD4631
:101BB00080BD80B584B000AFF860B9607A604FF046
:101BC000FF337A68B968F868FFF78BFF0346184659
:101BD0001037BD4680BD80B588B000AFF860B960F1
:101BE0007A607868FFF7D8FB03467B617B68DB0F80
:101BF0009BB21A46D203D31A5B009BB201339BB24D
:101C00001BB2BB830123FB8307F11403BB6107F104
:101C100018031A46B968F868FFF7BAFF0346184672
:101C20002037BD4680BD80B588B000AFF860B96090
:101C30007A607868FFF7B0FB03467B617B68DB0F57
:101C40009BB21A46D203D31A5B009BB201339BB2FC
:101C50001BB2BB830123FB8307F11403BB6107F1B4
:101C600018031A46B968F868FFF7A3FF0346184639
:101C70002037BD4680BD80B58EB002AFF860B96038
:101C80007A606FF06D03FB6200233B6207F118037B
:101C90001846FFF70FFA07F110031846FFF70AFA84
:101CA000FA68BB689A420CD107F11803B968184664
:101CB000FFF706FBF862FB6A002B7FD107F11803E0
:101CC000BB60FA687B689A420CD107F1100379680F
:101CD0001846FFF7F5FAF862FB6A002B6ED107F1A0
:101CE00010037B60BB68DB88BB620DE0BB681A68D1
:101CF000BB6A03F18043013B9B0013441B68002B2C
:101D000006D1BB6A013BBB62BB6A002BEED100E08F
:101D100000BFBB6A002B01D101233B627B68DB88DB
:101D20007B620DE07B681A687B6A03F18043013BAC
:101D30009B0013441B68002B06D17B6A013B7B622E
:101D40007B6A002BEED100E000BF7B6A002B01D143
:101D500001233B62BA6A7B6A13441946F868FFF7AD
:101D6000DEF9F862FB6A002B28D10021F868FFF742
:101D700024FBF862FB6A002B20D1FB681868BB6863
:101D800019687B681A687B6A00931346BA6A01F087
:101D900039FC3B6A002B03D0FB6801229A800DE0DE
:101DA000BB68B3F904309AB27B68B3F904309BB2D4
:101DB00012FB03F39BB21AB2FB689A8007F110037F
:101DC0001846FFF78AF907F118031846FFF785F957
:101DD000FB6A18463037BD4680BD80B588B002AF7B
:101DE000F860B9607A60BB68DB887B6102E07B6980
:101DF000013B7B617B69002B0AD0BB681A687B6959
:101E000003F18043013B9B0013441B68002BEED081
:101E10007B68002B02D07B69002B05D10021F8687C
:101E2000FFF7CBFA034622E06FF06D033B617B695D
:101E300001331946F868FFF772F938613B69002BE6
:101E400014D1B968F868FFF73BFA38613B69002B99
:101E50000CD1FB681868FB68DB881946BB681A68F8
:101E60007B68013B00937B6901F02AFB3B691846C4
:101E70001837BD4680BD2DE9B04F8AB000AF7861FC
:101E80003961FA60BB60FB68002B03D07A69FB689C
:101E90009A4209D3BB68002B03D0BB684FF0FF32D6
:101EA0001A604FF0FF333BE07B6900229A4693466D
:101EB0004FF000024FF0000353460022C7E906230B
:101EC0003B6900221C461546D7E9062342EA04086E
:101ED00043EA0509C7E90689FB6800223B607A608E
:101EE000D7E90023D7E90601FEF7D6FE02460B46E6
:101EF000C7E90823D7E90823012B05D34FF0FF32A8
:101F00004FF00003C7E90823BB68002B07D0BA696C
:101F10003B6AF96801FB03F3D21ABB681A603B6A9B
:101F200018462837BD46BDE8B08FF0B597B000AF72
:101F3000F860B9607A603B606FF06D037B650021EB
:101F40003868FFF786FC0346002B02D16FF00B03C5
:101F500087E207F13C031846FFF7ACF807F13403BA
:101F60001846FFF7A7F807F12C031846FFF7A2F869
:101F700007F124031846FFF79DF801233B84032350
:101F80007B8407F11003FB6139687868FFF744FB35
:101F90000346002B19DAFB68002B08D00021F868F3
:101FA000FFF70BFA78657B6D002B40F03F82BB6832
:101FB000002B08D07968B868FFF782F978657B6DE7
:101FC000002B40F0338200234BE207F13C03796899
:101FD0001846FFF775F978657B6D002B40F0268277
:101FE00007F1340339681846FFF76AF978657B6DA5
:101FF000002B40F01B8201233B87B7F93830A7F84C
:1020000040307B68DB8802331A4607F12C03114607
:102010001846FFF784F878657B6D002B40F0068248
:1020200007F12C0300211846FFF7C7F978657B6D8F
:10203000002B40F0FB817B68DB8802331A4607F1F6
:10204000240311461846FFF76AF878657B6D002B6C
:1020500040F0EC8107F134031846FFF72EFA0346EF
:1020600003F01F03FB64FB6C1E2B19D8FB6CC3F140
:102070001F03FB6407F13C03F96C1846FFF77FFA76
:1020800078657B6D002B40F0D18107F13403F96C4A
:102090001846FFF774FA78657B6D002B02D0C5E116
:1020A0000023FB64B7F84230013BBB647B8F013BEC
:1020B0007B64BA6C7B6CD31A5A0107F13403114666
:1020C0001846FFF75CFA78657B6D002B40F0AE8117
:1020D00016E0FA6AB96C7B6CCB1A9B0013441A6841
:1020E00001321A6007F1340207F13C0107F13C03A9
:1020F0001846FFF75EFD78657B6D002B40F09681FA
:1021000007F1340207F13C0311461846FFF7FEFAC7
:102110000346002BDDDABA6C7B6CD31A5A0107F147
:10212000340311461846FFF761FA78657B6D002B82
:1021300040F07C81BB6C3B6530E1FA6B3B6D9B00F2
:1021400013441A68796B7B6C9B000B441B689A42A2
:102150000CD3FA6A396D7B6CCB1A03F18043013BD7
:102160009B0013444FF0FF321A6021E0FA6B3B6D85
:102170009B0013441868FA6B3B6D03F18043013BED
:102180009B0013441D687A6B7B6C9B0013441E6894
:10219000FA6A396D7B6CCB1A03F18043013B9B00DB
:1021A000D418002332462946FFF765FE0346236014
:1021B0003B6D012B08D9FA6B3B6D03F18043023B69
:1021C0009B0013441B6800E00023FA6913603B6D19
:1021D000002B08D0FA6B3B6D03F18043013B9B0061
:1021E00013441B6800E00023FA6904321360FA6BA1
:1021F0003B6D9B001A44FB69083312681A60FA6A47
:10220000396D7B6CCB1A03F18043013B9B00134477
:102210001A6801321A60FA6A396D7B6CCB1A03F1C5
:102220008043013B9B0013441A68013A1A6007F18E
:10223000240300211846FFF7C0F878657B6D002B5A
:1022400040F0F4807B6C002B08D07A6B7B6C03F140
:102250008043013B9B0013441B6800E000237A6A23
:1022600013607A6B7B6C9B001A447B6A04331268A0
:102270001A60FA6A396D7B6CCB1A03F18043013B1B
:102280009B0013441A6807F1240107F12403184640
:10229000FFF7A3FD78657B6D002B40F0C78007F149
:1022A0001C0207F1240311461846FFF72FFA0346D4
:1022B000002BB0DCFA6A396D7B6CCB1A03F18043DA
:1022C000013B9B0013441A6807F1340107F1240312
:1022D0001846FFF782FD78657B6D002B40F0A680E5
:1022E0003A6D7B6CD31A013B5A0107F12403114666
:1022F0001846FFF744F978657B6D002B40F0968017
:1023000007F1240207F13C0107F13C031846FFF7EF
:1023100050FC78657B6D002B40F0888007F13C0312
:1023200000211846FFF795FA0346002B33DA07F130
:10233000340207F1240311461846FEF7C1FF786501
:102340007B6D002B72D13A6D7B6CD31A013B5A0125
:1023500007F1240311461846FFF711F978657B6DE4
:10236000002B63D107F1240207F13C0107F13C0384
:102370001846FFF70DFC78657B6D002B56D1FA6A85
:10238000396D7B6CCB1A03F18043013B9B001344F6
:102390001A68013A1A603B6D013B3B653A6D7B6CF4
:1023A0009A423FF6CAAEFB68002B17D007F12C0308
:1023B0001946F868FEF784FF78657B6D002B35D1F0
:1023C0007B68B3F904309AB23B68B3F904309BB22E
:1023D00012FB03F39BB21AB2FB689A80BB68002B16
:1023E00023D007F13C03F96C1846FFF7FFF8786536
:1023F0007B6D002B1AD17B68B3F90430A7F840300D
:1024000007F13C031946B868FEF75AFF78657B6D03
:10241000002B0BD10021B868FFF71BFA0346002BF5
:1024200003D1BB6801229A8000E000BF07F13C03A2
:102430001846FEF752FE07F134031846FEF74DFE2C
:1024400007F12C031846FEF748FE07F1240318464F
:10245000FEF743FE07F110030C21184601F098FE29
:102460007B6D18465C37BD46F0BD80B586B000AFC9
:10247000F860B9607A606FF06D037B610021786865
:10248000FFF7E7F90346002B02DA6FF009032DE0AE
:102490007B68BA68F9680020FFF747FD78617B69BF
:1024A000002B22D108E07A68F968F868FFF770FB22
:1024B00078617B69002B18D10021F868FFF7C9F912
:1024C0000346002BEFDB08E07A68F968F868FFF74D
:1024D00070FB78617B69002B07D17968F868FFF79A
:1024E00015F90346002BEFDA00BF7B691846183751
:1024F000BD4680BDF0B591B004AFF860B9607A60B8
:102500003B606FF06D03FB620021B86CFFF7A1F92F
:102510000346002B06DDBB6C1B681B6803F0010340
:10252000002B02D16FF0030334E100217868FFF73C
:1025300090F90346002B02DA6FF003032AE1786872
:10254000FEF7BBFF0346B3F5005F06D8B86CFEF795
:10255000B4FF0346B3F5005F02D96FF0030319E13E
:102560007B68DB88002B06D10121F868FEF725FF88
:10257000F862FB6A0EE1BB6CDB881A467B68DB887D
:102580001946104601F0A8F9B8620421B86A04F0AF
:102590005FFF03467B627B6A002B02D16FF00F0363
:1025A000F8E007F114031846FEF784FDFB6C002BDE
:1025B00003D0FB6C1B68002B16D107F11403B96C18
:1025C000184601F0D9F8F862FB6A002B40F0CF8082
:1025D000FB6C002B1AD0FB6C1A4607F1140393E82E
:1025E000030082E8030011E0BB6CDB881946F86C3D
:1025F000FEF795FDF862FB6A002B40F0B880FA6C9C
:1026000007F1140392E8030083E80300B968F8684F
:10261000FEF756FEF862FB6A002B40F0A880FB68CC
:1026200001229A80B96CF868FFF770F80346002B16
:1026300009DBBA6CF968F868FFF717FFF862FB6A04
:10264000002B40F09480BB6CDB881946F868FEF7DD
:1026500066FDF862FB6A002B40F08980BB6C1B684A
:10266000184600F0FEFF3862FB681868FB681968BE
:10267000BB6C1C68BB6CDB881D467B697A6A029266
:1026800001933B6A00932B46224601F021FB3B68F5
:10269000B3F12A3F19D1FB681868FB681C68BB6C52
:1026A0001D68BB6CDB889C467B681B687A68D28897
:1026B00016467A69796A03910292019600936346FD
:1026C0002A46214601F095FA18E0FB681868FB6875
:1026D0001C68BB6C1D68BB6CDB889C467B681B68F8
:1026E0007A68D28816467A69796A039102920196CD
:1026F000009363462A46214601F060FAFB68186899
:10270000FB681968BB6C1A68BB6CDB881C467B6A6B
:1027100001933B6A0093234601F0F3FABB68B3F9D7
:102720000430B3F1FF3F21D17B681B681B6803F0C5
:102730000103002B1AD0FB681A68FB68DB88194676
:10274000104601F0A2FAF86101224FF0FF31F8695A
:10275000FEF794FC03461A46FB689A80FA68B96C47
:10276000F868FFF715FAF862FB6A002B00BFBB6A36
:102770009B001946786A01F02FFDFB6C002B03D0FB
:10278000FB6C1B68002B04D107F114031846FEF7FD
:10279000A4FCFB6A18463437BD46F0BD80B586B050
:1027A00002AFF860B9607A603B60BB6901933B6837
:1027B000009300237A68B968F868FFF79BFE034628
:1027C00018461037BD4680BD80B58CB000AFF860AC
:1027D000B9607A606FF06D03FB6207F11C03184665
:1027E000FEF768FC07F114031846FEF763FC07F1D7
:1027F0001C03B9681846FEF763FDF862FB6A002BFC
:1028000040F0AC8007F1140379681846FEF758FDD4
:10281000F862FB6A002B40F0A18007F11C03184608
:10282000FEF71EFEB86207F114031846FEF718FE05
:1028300078627B6A002B0ED107F114030021184641
:10284000FEF7EDFD0346002B05D1B968F868FEF7E9
:1028500037FDF86282E07A6ABB6A9A4201D27B6AEB
:10286000BB6201233B83B7F918303B8459E007F181
:102870001C031846FEF7F4FD024607F11C0311463F
:102880001846FEF7B3FEF862FB6A002B66D107F12B
:1028900014031846FEF7E4FD024607F1140311463F
:1028A0001846FEF7A3FEF862FB6A002B56D107F12B
:1028B000140207F11C0311461846FEF727FF0346D2
:1028C000002B17DB07F1140207F11C0107F11C03B1
:1028D0001846FFF76FF8F862FB6A002B3ED107F14C
:1028E0001C0301211846FEF781FEF862FB6A002BEB
:1028F00017D033E007F11C0207F1140107F11403AC
:102900001846FFF757F8F862FB6A002B26D107F14B
:10291000140301211846FEF769FEF862FB6A002BDA
:102920001CD107F11C0300211846FEF792FF034655
:10293000002B9CD107F11403B96A1846FEF71FFE5D
:10294000F862FB6A002B09D107F114031946F868F5
:10295000FEF7B6FCF862FB6A002B00BF07F11C0310
:102960001846FEF7BAFB07F114031846FEF7B5FB4D
:10297000FB6A18463037BD4680BD80B588B002AFCF
:10298000F860B9607A603B606FF06D037B61BB6893
:102990009B08BA6802F00302002A14BF0122002239
:1029A000D2B213443B613969F868FEF75DFC786187
:1029B0007B69002B10D1BB68002B01D100230CE0F8
:1029C000FB681868FB68DB8819463B6800937B68E6
:1029D000BA6800F02AFF78617B6918461837BD464F
:1029E00080BD80B598B000AFF860B9607A606FF0D4
:1029F0006D03FB6501217868FEF72BFF0346002B72
:102A000002DC6FF0030309E207F14C031846FEF7FE
:102A100051FB07F144031846FEF74CFB07F13C035A
:102A20001846FEF747FB07F134031846FEF742FB52
:102A300007F154031846FEF73DFB07F12C03184637
:102A4000FEF738FB07F124031846FEF733FB07F1C6
:102A50001C031846FEF72EFB07F114031846FEF779
:102A600029FB07F154037A68B9681846FFF7ACFEF2
:102A7000F865FB6D002B40F0A38107F154030121A1
:102A80001846FEF7E6FE0346002B03D06FF00D0359
:102A9000FB6595E107F14C037A68B9681846FFF7C2
:102AA000E4FCF865FB6D002B40F08A8107F14C02D5
:102AB00007F1440311461846FEF702FCF865FB6D6A
:102AC000002B40F07D8107F12C0379681846FEF752
:102AD000F7FBF865FB6D002B40F0728107F12403D2
:102AE00079681846FEF7ECFBF865FB6D002B40F0AB
:102AF000678107F13C0301211846FEF75EFCF8658B
:102B0000FB6D002B40F05C8107F134030021184677
:102B1000FEF753FCF865FB6D002B40F0518107F187
:102B20001C0300211846FEF748FCF865FB6D002BDE
:102B300040F0468107F1140301211846FEF73DFCE1
:102B4000F865FB6D002B40F03B8148E007F1440342
:102B500001211846FEF74AFDF865FB6D002B40F099
:102B60002F81FB6B1B6803F00103002B05D17B6BEE
:102B70001B6803F00103002B1BD007F12C0207F1A7
:102B80003C0107F13C031846FFF702F8F865FB6DBE
:102B9000002B40F0158107F14C0207F1340107F1D9
:102BA00034031846FFF705F8F865FB6D002B40F07D
:102BB000078107F13C0301211846FEF717FDF86570
:102BC000FB6D002B40F0FC8007F134030121184617
:102BD000FEF70CFDF865FB6D002B40F0F1807B6C7F
:102BE0001B6803F00103002BB0D048E007F1240379
:102BF00001211846FEF7FAFCF865FB6D002B40F04A
:102C0000DF80FB691B6803F00103002B05D17B69A2
:102C10001B6803F00103002B1BD007F12C0207F106
:102C20001C0107F11C031846FEF7B2FFF865FB6DA7
:102C3000002B40F0C58007F14C0207F1140107F1A9
:102C400014031846FEF7B5FFF865FB6D002B40F046
:102C5000B78007F11C0301211846FEF7C7FCF86591
:102C6000FB6D002B40F0AC8007F1140301211846E6
:102C7000FEF7BCFCF865FB6D002B40F0A1807B6A81
:102C80001B6803F00103002BB0D007F1240207F109
:102C9000440311461846FEF739FD0346002B28DB96
:102CA00007F1240207F1440107F144031846FEF737
:102CB00080FFF865FB6D002B40F0828007F11C025D
:102CC00007F13C0107F13C031846FEF772FFF86577
:102CD000FB6D002B74D107F1140207F1340107F1E9
:102CE00034031846FEF765FFF865FB6D002B27D00F
:102CF00066E007F1440207F1240107F124031846B6
:102D0000FEF757FFF865FB6D002B59D107F13C0228
:102D100007F11C0107F11C031846FEF74AFFF8658E
:102D2000FB6D002B4CD107F1340207F1140107F1C0
:102D300014031846FEF73DFFF865FB6D002B3FD1ED
:102D400007F1440300211846FEF783FD0346002BDC
:102D50007FF445AF0BE007F11C0107F11C037A6813
:102D60001846FEF715FFF865FB6D002B28D107F11B
:102D70001C0300211846FEF76CFD0346002BEADB1E
:102D80000BE007F11C0107F11C037A681846FEF7F7
:102D900010FFF865FB6D002B12D107F11C03796859
:102DA0001846FEF7B3FC0346002BEADA07F11C03D2
:102DB0001946F868FEF784FAF865FB6D002B00BF32
:102DC00007F14C031846FEF788F907F1440318464B
:102DD000FEF783F907F13C031846FEF77EF907F189
:102DE00034031846FEF779F907F154031846FEF745
:102DF00074F907F12C031846FEF76FF907F1240365
:102E00001846FEF76AF907F11C031846FEF765F944
:102E100007F114031846FEF760F9FB6D184660379A
:102E2000BD4680BD80B483B000AF78607B687B60B6
:102E30007B6818460C37BD465DF8047B704780B44C
:102E400085B000AF78607B685A421343DB17FA60A5
:102E50007B607B6818461437BD465DF8047B70477D
:102E600080B485B000AFF860B9607A607968FA68BC
:102E7000BB681340D2430A401A43FA60BB60FB6848
:102E800018461437BD465DF8047B704790B585B091
:102E900000AF786039607868FFF7C4FF044638688F
:102EA000FFF7C0FF03466340FB60F868FFF7C7FF0A
:102EB000034618461437BD4690BD80B584B000AFB8
:102EC000F860B9607A607A68B968F868FFF7C8FF97
:102ED000034618461037BD4680BD80B582B000AFAE
:102EE0007860396039687868FFF7D0FF0346DB43C4
:102EF00018460837BD4680BD80B483B000AF786007
:102F00007B68B3FA83F318460C37BD465DF8047B43
:102F1000704780B584B000AF786039603B68013B92
:102F2000FB601AE0FB689B007A6813441B68002B67
:102F300010D0FB689B007A6813441B681846FFF7A3
:102F4000DBFF0346C3F12003BB60FB685A01BB688B
:102F5000134406E0FB68013BFB60FB68002BE1DAF1
:102F6000002318461037BD4680BD80B483B000AF43
:102F700078607B681BBA18460C37BD465DF8047B49
:102F8000704780B586B000AF786039603B68002B31
:102F900026D07B687B613B6803F18043013B9B004B
:102FA0007A6813443B6116E07B691B681846FFF79B
:102FB000DCFFF8603B691B681846FFF7D6FF024646
:102FC0007B691A603B69FA681A607B6904337B612C
:102FD0003B69043B3B617A693B699A42E4D900E072
:102FE00000BF1837BD4680BD90B587B000AFF86010
:102FF000B9607A603B60FA68BB689A421ED00023D1
:103000007B6116E07B699B00BA68134419687B6991
:103010009B00FA68134418687B699B00FA68D4180F
:1030200002463868FFF749FF034623607B69013396
:103030007B617A697B689A42E4D300E000BF1C3769
:10304000BD4690BD80B588B000AFF860B9607A60C9
:103050003B603B689B083A6802F00302002A14BFF9
:1030600001220022D2B21344FB61BA68FB699A4282
:1030700002D26FF0070322E0BB68002B01D10023CE
:103080001DE0BB689B001A460021F86805F010FCA3
:103090003B68002B0ED0BB689A003B68D31ABB611B
:1030A000FB687B617A69BB6913443A6879681846A2
:1030B00005F09FFCB968F868FFF763FF0023184626
:1030C0002037BD4680BD80B58AB000AFF860B960DA
:1030D0007A603B60BB689B007B617A693B689A427F
:1030E00010D27B697B623A687B69D31A7A68134491
:1030F0003B623A687B69D31A1A460021786805F06A
:10310000D7FB1FE03B687B627B683B627B6AFB61AD
:1031100014E0FB6923F00303FA6813441A68FB699F
:1031200003F00303DB0022FA03F3DBB2002B02D02F
:103130006FF0070325E0FB690133FB61FA697B69E6
:103140009A42E6D30023BB6116E0BB6923F0030378
:10315000FA6813441A68BB6903F00303DB0022FA20
:1031600003F17A6ABB69D31A013B3A6A1344CAB2C3
:103170001A70BB690133BB61BA697B6A9A42E4D3B6
:10318000002318462837BD4680BD80B58AB000AF01
:10319000F860B9607A6000233B627B685B09FB6181
:1031A0007B6803F01F03BB61FA69BB689A4206D8CB
:1031B000FA69BB689A420AD1BB69002B07D0BB6889
:1031C0009B001A460021F86805F072FB69E0FB6974
:1031D000002B25D000237B620EE07A6AFB69134442
:1031E0009B00FA681A447B6A9B00F9680B441268DA
:1031F0001A607B6A01337B62BA68FB69D31A7A6A08
:103200009A42EAD308E07B6A9B00FA6813440022E2
:103210001A607B6A01337B627A6ABB689A42F2D396
:10322000BB69002B3DD0BB687B6237E07B6A03F152
:103230008043013B9B00FA6813441A68BB69C3F1E1
:10324000200302FA03F37B617B6A03F18043013BB5
:103250009B00FA68134419687B6A03F18043013BC1
:103260009B00FA681344BA6921FA02F21A607B6A79
:1032700003F18043013B9B00FA68134419687B6AA1
:1032800003F18043013B9B00FA6813443A6A0A4306
:103290001A607B693B627B6A013B7B627B6A002B25
:1032A000C4D12837BD4680BD80B48BB000AFF86074
:1032B000B9607A6000233B627B685B09FB617B68D5
:1032C00003F01F03BB61FB69002B2BD0BB687B6243
:1032D00014E07A6AFB69D31A03F18043013B9B0037
:1032E000FA681A447B6A03F18043013B9B00F9684A
:1032F0000B4412681A607B6A013B7B627A6AFB6945
:103300009A42E6D80BE07B6A03F18043013B9B00C5
:10331000FA68134400221A607B6A013B7B627B6A75
:10332000002BF0D1BB69002B2FD0FB697B6228E01A
:103330007B6A9B00FA6813441A68BB69C3F12003D7
:1033400022FA03F37B617B6A9B00FA6813441968D5
:103350007B6A9B00FA681344BA6901FA02F21A60A8
:103360007B6A9B00FA68134419687B6A9B00FA68C1
:1033700013443A6A0A431A607B693B627B6A0133F1
:103380007B627A6ABB689A42D2D300BF2C37BD46B3
:103390005DF8047B704780B489B000AFF860B96015
:1033A0007A603B600023FB610023BB6133E0BB69B3
:1033B0009B00BA6813441B68FA6913447B61BB69BC
:1033C0009B00BA6813441B687A699A4234BF012390
:1033D0000023DBB2FB61BB699B007A6813441B6866
:1033E0007A6913447B61BB699B007A6813441B684C
:1033F0007A699A4234BF01230023DBB21A46FB6983
:103400001344FB61BB699B00FA6813447A691A6034
:10341000BB690133BB61BA693B689A42C7D3FB6998
:1034200018462437BD465DF8047B704780B489B0E8
:1034300000AFF860B9607A603B600023FB61002355
:10344000BB6131E0BB699B00BA6813441B68FA6931
:103450009A428CBF01230023DBB27B61BB699B00D6
:10346000BA6813441A68FB69D31A3B61BB699B00B5
:103470007A6813441B683A699A4234BF01230023D7
:10348000DBB21A467B691344FB61BB699B007A6817
:1034900013441A68BB699B00F9680B4439698A1A9E
:1034A0001A60BB690133BB61BA693B689A42C9D3F0
:1034B000FB6918462437BD465DF8047B7047000061
:1034C000F0B48EB000AFF860B9607A603B60002362
:1034D0007B63BA683B689A4201D2BB683B60BA68BA
:1034E0003B68D31A3B633B68DB08FB623B6803F035
:1034F0000703BB624CE0B86C7968FA687B6B00BF6D
:1035000051F808CB52F8086B51F8045C52F8044C9F
:10351000E0FB6C63E0FB654342F8086C42F8044C46
:1035200051F808CB52F8086B51F8045C52F8044C7F
:10353000E0FB6C63E0FB654342F8086C42F8044C26
:1035400051F808CB52F8086B51F8045C52F8044C5F
:10355000E0FB6C63E0FB654342F8086C42F8044C06
:1035600051F808CB52F8086B51F8045C52F8044C3F
:10357000E0FB6C63E0FB654342F8086C42F8044CE6
:103580006046F861BE617D613C617960FA607B6391
:10359000FB6A5A1EFA62002BADD10FE0B86C796855
:1035A000FA687B6B51F8045B1468E0FB654342F8F2
:1035B000044B7D623C627960FA607B63BB6A5A1E91
:1035C000BA62002BEAD111E0FB681A687B6B1A44DF
:1035D000FB681A60FB681B687A6B9A428CBF0123F8
:1035E0000023DBB27B63FB680433FB603B6B5A1E3A
:1035F0003A63002BE8D17B6B18463837BD46F0BCE8
:10360000704700BF80B588B002AFF860B9607A60DB
:103610003B607A683B6A13449B001A460021F868B5
:1036200005F046F900237B6112E07B699B00FA6894
:10363000D0187B68591C7B699B003A6813441B684F
:1036400000937B68BA68FFF73BFF7B6901337B61BE
:103650007A693B6A9A42E8D300BF00BF1837BD467B
:1036600080BD80B485B000AF78607B681B68FB606C
:103670007B681B6802335B0003F00803FA6813449D
:10368000FB602023BB600DE07B681B68FA6802FBCF
:1036900003F3C3F10202FB6802FB03F3FB60BB68A8
:1036A0005B08BB60BB68072BEED8FB685B42184623
:1036B0001437BD465DF8047B704780B58CB002AF0F
:1036C000F860B9607A603B607B6BDB0004331A46BC
:1036D0000021F86B05F0ECF800237B6229E07B6A9F
:1036E0009B00BA6813441B68BB61FB6B1A687B685C
:1036F0001B68B96901FB03F31A44BB6B02FB03F3BC
:103700007B617B6B991CBB6900933B687A68F86BA3
:10371000FFF7D6FE7B6B991C7B6900937B6B3A6B42
:10372000F86BFFF7CDFEFB6B0433FB637B6A013361
:103730007B627A6A7B6B9A42D1D37B6B9B00FA6B7C
:1037400013441B683B627B6B3A6BF96BF868FFF7BD
:103750006DFEF8613A6AFB6953401846FFF76FFB4C
:103760007B6B9B0000930023FA6BF96800F0F2FA80
:1037700000BF2837BD4680BD80B584B000AF7860FB
:1037800039606FF06D03FB6001217868FDF715FE6D
:10379000F860FB68002B1DD13B68DB889B01194654
:1037A0007868FDF7ECFEF860FB68002B12D13A68F0
:1037B00079687868FEF759FEF860FB68002B09D13C
:1037C0003B68DB8819467868FDF7EAFCF860FB681F
:1037D000002B00BFFB6818461037BD4680BD80B582
:1037E00086B000AFF860B9607A603B6000237B610F
:1037F00012E0396A7869FFF770FB38613B697A68D3
:10380000B968F868FFF7F0FB7B6901337B617B687F
:103810009B00BA681344BB607A693B689A42E8D35C
:1038200000BF00BF1837BD4680BD80B588B000AF6F
:10383000F860B9607A603B606FF06D03FB617B6894
:103840009B087A6802F00302002A14BF01220022BA
:10385000D2B21344BB61BB699A007B68D31A7B6107
:10386000BA68BB699A4202D26FF0030320E07A691A
:103870000021F86805F01CF8BB699B00FA68D018B5
:10388000BA68BB69D31A9B001A46002105F010F8EC
:10389000FA687B69D1183B687A68B86A9847F8611A
:1038A000FB69002B03D1B969F868FFF76AFBFB6974
:1038B00018462037BD4680BD80B483B000AF786025
:1038C0007B684F2B01D9032300E0012318460C37F6
:1038D000BD465DF8047B704780B588B000AF786066
:1038E00039603B685B011846FFF7E6FFF86101228B
:1038F000FB6902FA03F3BB61BB697A6802FB03F35D
:103900007B617B683B617B685B000133FB607A69AC
:103910003B691A44FB68134418462037BD4680BDF6
:1039200080B58CB004AFF860B9607A603B607B68AA
:103930009B001A460021386B04F0BAFF3B6B012252
:103940001A607B6B03933B6802937B680193BB68AF
:1039500000937B68BA6A396B386BFFF7AEFE7B6801
:103960009B003A6B13447B617B689B001A46F968A5
:10397000786905F03EF87B69FB610223BB6117E0C3
:103980007B689B00FA6913443B617B6B03933B6844
:1039900002937B680193BB6800937B687A69F9693D
:1039A0003869FFF78AFE3B69FB61BB690133BB6184
:1039B000BA69FB6A9A42E3D300BF00BF2037BD4615
:1039C00080BD80B586B000AFF860B9607A603B60BA
:1039D0007B68B3F12A3F13D1B968F868FFF799FA09
:1039E00078617B69002B01D101237B617B695A09D6
:1039F0003B681A607B6903F01F023B6A1A6005E0AE
:103A00003B68BA681A603B6A00221A6000BF183728
:103A1000BD4680BD80B586B002AFF860B9607A60FF
:103A20003B60FB69B3F12A3F0DD1BB697A6802FBA9
:103A300003F39B00BA68D1187B689B001A46F868AC
:103A400004F0D7FF07E0BB6900933B687A68B96868
:103A5000F868FFF7C4FE00BF1037BD4680BD80B5D3
:103A600094B004AFF860B9607A603B60FB6C7B6136
:103A700000233B6107F1140207F110030093134682
:103A80003A6DF96CB86CFFF79CFF7B695B011846D7
:103A9000FFF712FF786301227B6B02FA03F33B63AB
:103AA0003B6B3A6802FB03F3FB623B68BB62BB6D96
:103AB0007B62FB6A9B007A6A13443B62BB6A9B0091
:103AC0003A6A1344FB617868FFF7CBFDB861FB6984
:103AD00003937B6A02933B6B01937B6D0093BB69FD
:103AE0003A687968B868FFF71BFF3B689B001A4685
:103AF000796AF86804F07DFF0023FB630023BB6351
:103B0000FB690393BB6902933B6801937B68009355
:103B10003B68FA68F968F868FFF7CFFD3B69002B4E
:103B200005D17B69013B7B611F233B6102E03B695F
:103B3000013B3B61FB6B0133FB63BB6B5B00BB6316
:103B40007B699B00BA6C13441A683B6922FA03F341
:103B500003F00103BA6B1343BB63FA6B7B6B9A42AE
:103B600005D03B69002B1ED17B69002B1BD13B6D1F
:103B70000193BB6B00933B6B3A68796A386AFFF735
:103B800049FFFB690393BB6902933B6801937B6820
:103B900000933B683A6AF968F868FFF78EFD0023E6
:103BA000BB630023FB633B69002BA9D17B69002B1E
:103BB000A6D100BF00BF4037BD4680BD80B58AB0EA
:103BC00006AFF860B9607A603B607B6A04933B6A39
:103BD000039300230293FB690193BB6900933B6845
:103BE0007A68B968F868FFF73AFF00BF1037BD463A
:103BF00080BD80B58AB006AFF860B9607A603B607E
:103C00007B6A04933B6A03934FF02A330293FB6968
:103C10000193BB6900933B687A68B968F868FFF75D
:103C20001EFF00BF1037BD4680BD80B489B000AF15
:103C3000F860B9607A603B600023FB611AE0FB69C1
:103C40009B00BA6813441B68BB61BA697B68D31ACE
:103C50007B617A69BB699A428CBF01230023DBB286
:103C60007B60FB699B00FA6813447A691A60FB6900
:103C70000133FB61FA693B689A42E0D37B681846DE
:103C80002437BD465DF8047B704780B586B000AF31
:103C9000786039607B68FB6000237B6100233B61B7
:103CA0000AE03B699B00FA6813441B687A69134376
:103CB0007B613B6901333B613A693B689A42F0D3CF
:103CC0007869FFF7BCF8034618461837BD4680BD33
:103CD00080B588B004AFF860B9607A603B603B6A39
:103CE0000393BB6902933B6801937B6800933B6835
:103CF000FA69B968F868FFF7E0FC00BF1037BD4605
:103D000080BD80B58AB004AFF860B9607A603B606E
:103D100001237B6107F114027B6A03933B6A0293E0
:103D20003B6801937B6800930123B968F868FFF74B
:103D3000C4FC00BF1837BD4680BD80B483B000AF5F
:103D400078607B687B607B6818460C37BD465DF801
:103D5000047B704780B590B000AFF860B9607A60BE
:103D60003B60FB68BB63F868FFF7E7FF0346DB4394
:103D70007B633B68002B01D1BB683B600023FB6386
:103D800024E07A68FB6B13443B623B6A1B68FB616F
:103D9000FB69BA6B13403B633A68FB6B13447B626D
:103DA0007B6A1B68BB61BB697A6B1340FB62BA68B4
:103DB000FB6B1A44396BFB6A0B43BA627B617A690D
:103DC000BB6A1A6000BFFB6B0433FB63FB6B0433FD
:103DD000BA6C9A42D5D218E07A68FB6B13441A7811
:103DE000BB6BDBB21340D9B23A68FB6B13441A7851
:103DF0007B6BDBB21340DAB2B868FB6B03440A4357
:103E0000D2B21A70FB6B0133FB63FA6BBB6C9A4244
:103E1000E2D300BF00BF4037BD4680BD80B487B04D
:103E200000AFF860B9607A6000237B610AE07B69CB
:103E3000DAB2B9687B690B440132D2B21A707B697D
:103E400001337B617A697B689A42F0D3002318467C
:103E50001C37BD465DF8047B7047000080B582B01A
:103E600002AF154800F0CEFB802214491448FDF73C
:103E700043FB032213491448FDF73EFB80221349FC
:103E80001348FDF739FB104B0193114B00930023AE
:103E900000220B49084800F0CFF9074800F09AFAD1
:103EA000054800F0C2FB034619460A4804F07CFBB3
:103EB00000BFBD4680BD00BFF00100204CC100081E
:103EC00068020020CCC1000870020020D0C10008A8
:103ED0007802002038BC000880B584B002AF78605A
:103EE00039603B6800937B6800220449044800F075
:103EF00007FD034618460837BD4680BD1D3E000835
:103F0000F001002080B500AF024800F069FE00BF5C
:103F100080BD00BFF001002080B582B000AF01F08D
:103F20008DFA00F043F800F0F3F800F09DF800F08F
:103F3000C5F8174804F0A0FBFFF790FF1549164895
:103F4000FFF7CAFF38603B68002B06D03B685B4236
:103F50001946124804F028FB16E0114804F08CFBC7
:103F600000237B600AE00B4A7B6813441B781946E8
:103F70000C4804F019FB7B6801337B607B687F2B66
:103F8000F1D9094804F078FBFFF7BCFF00BFFDE75B
:103F900050BC000880020020CCC0000870BC0008A3
:103FA00094BC0008A0BC0008A8BC000880B594B070
:103FB00000AF07F1200330220021184604F078FCFE
:103FC00007F10C0300221A605A609A60DA601A61E5
:103FD0000023BB60224B1B6C214A43F080531364C7
:103FE0001F4B1B6C03F08053BB60BB6800237B60DE
:103FF0001C4B1B681B4A43F440431360194B1B685E
:1040000003F440437B607B6802233B620123FB6235
:1040100010233B630023BB6307F12003184601F024
:10402000A7FD0346002B01D000F0ACF80F23FB6086
:1040300000233B6100237B610023BB610023FB6104
:1040400007F10C030021184602F00AF80346002B82
:1040500001D000F097F800BF5037BD4680BD00BFCB
:10406000003802400070004080B500AF114B124A8A
:104070001A60104B4FF4E1325A600E4B00229A60E6
:104080000C4B0022DA600B4B00221A61094B0C2208
:104090005A61084B00229A61064B0022DA610548FA
:1040A00002F0BEF90346002B01D000F06BF800BF10
:1040B00080BD00BF000300200010014080B500AFAC
:1040C000114B124A1A60104B4FF4E1325A600E4BFA
:1040D00000229A600C4B0022DA600B4B00221A611E
:1040E000094B0C225A61084B00229A61064B0022B0
:1040F000DA61054802F094F90346002B01D000F084
:1041000041F800BF80BD00BF4803002000440040CC
:1041100080B483B000AF00237B60104B1B6B0F4A51
:1041200043F0800313630D4B1B6B03F080037B6034
:104130007B6800233B60094B1B6B084A43F001037B
:104140001363064B1B6B03F001033B603B6800BF2E
:104150000C37BD465DF8047B704700BF0038024055
:1041600080B582B000AF7860391D4FF0FF33012277
:10417000034802F0A5F97B6818460837BD4680BDA4
:104180000003002080B400AF72B600BF00BFFDE79F
:10419000B0B584B000AF786039603B68002B15D0B3
:1041A0000C4B1B683A680021786898473B681A46B0
:1041B000013AFA6000221C4615464FF000024FF00B
:1041C0000003EB0043EA5473E2007B6800BF103742
:1041D000BD46B0BD50C2000880B582B000AF786067
:1041E00039607B68002B03D039687868FFF7D0FF0F
:1041F000786803F051F900BF0837BD4680BD80B430
:1042000083B000AF78607B685B00013318460C37E1
:10421000BD465DF8047B704780B485B000AFF860A0
:10422000B9607A603B60FA68BB681344184614377B
:10423000BD465DF8047B704780B586B000AFF8607E
:10424000B9607A603B606FF06D037B61BB68002BE7
:1042500009D0FB680833B9681846FDF731F8786172
:104260007B69002B33D17B68002B09D0FB6820339E
:1042700079681846FDF724F878617B69002B26D110
:104280003B68002B09D0FB68283339681846FDF7D6
:1042900017F878617B69002B19D13B6A002B09D094
:1042A000FB681833396A1846FDF70AF878617B69AC
:1042B000002B0CD17B6A002B12D0FB681033796A7B
:1042C0001846FCF7FDFF78617B69002B08D04FF49E
:1042D00012730B4A79690B48FFF79EFF03460BE008
:1042E000BB68002B07D0FB6808331846FDF7F6F8CB
:1042F0000246FB685A60002318461837BD4680BD49
:10430000ACBC000880BFFFFF90B585B000AFF8607F
:10431000B9607A60FB685C68FB6808331846FDF793
:10432000DDF803469C4204D1FB685B68B3F5806FFF
:1043300001D9274B47E0FB68083300211846FDF7F9
:1043400088FA0346002B08DDFB6808330021184675
:10435000FDF765F80346002B01D11D4B33E0FB68E8
:10436000103300211846FDF774FA0346002B01DCD8
:10437000174B28E0BB68002B0AD0FB6818330021DC
:104380001846FDF766FA0346002B01DC104B1AE0D5
:10439000BB68002B16D07B68002B13D0FB68203342
:1043A00000211846FDF755FA0346002B08DDFB688F
:1043B000283300211846FDF74CFA0346002B01DC98
:1043C000034B00E0002318461437BD4690BD00BFE4
:1043D00080BFFFFF90B591B002AF786000237B6390
:1043E0007B68083300211846FDF733FA0346002B9B
:1043F00014BF01230023DBB23B637B682033002121
:104400001846FDF726FA0346002B14BF01230023AC
:10441000DBB2FB627B68283300211846FDF719FAEE
:104420000346002B14BF01230023DBB2BB627B6871
:10443000183300211846FDF70CFA0346002B14BF71
:1044400001230023DBB27B627B6810330021184616
:10445000FDF7FFF90346002B14BF01230023DBB255
:104460003B62FB6A002B0AD0BB6A002B07D07B6A39
:10447000002B04D03B6A002B01D0012300E0002375
:10448000FB613B6B002B0DD0FB6A002B0AD1BB6A92
:10449000002B07D17B6A002B04D03B6A002B01D094
:1044A000012300E00023BB61FB6A002B0AD0BB6A3A
:1044B000002B07D07B6A002B04D13B6A002B01D074
:1044C000012300E000237B613B6B002B0DD0FB6AD6
:1044D000002B0AD1BB6A002B07D17B6A002B04D1C9
:1044E0003B6A002B01D0012300E000233B61FB6904
:1044F000002B05D1BB69002B02D17B69002B01D0B9
:10450000012300E00023FB60FB68002B04D13B6922
:10451000002B01D1394B6DE03B6B002B25D1FB6AA1
:10452000002B22D0BB6A002B1FD07B6803F1080050
:104530007B6803F120017B6828331A46FDF79BFB5B
:1045400078637B6B002B08D04FF441732C4A796B56
:104550002A48FFF761FE03464CE07B6808331846A3
:10456000FCF7BCFF02467B685A60BB69002B1ED07B
:104570007B6803F108007B6803F110017B6803F19D
:1045800018027B6803F120047B68283300932346DC
:1045900000F05AFB78637B6B002B25D040F212337E
:1045A000174A796B1548FFF737FE034622E07B690F
:1045B000002B19D07B6803F120007B6803F12801F0
:1045C0007B6803F110027B68183300F0AFFC78635E
:1045D0007B6B002B08D040F21A33094A796B0748ED
:1045E000FFF71AFE034605E00122F9687868FFF735
:1045F0008BFE034618463C37BD4690BD80BFFFFF8B
:10460000ACBC000880B582B000AF78607822002191
:10461000786804F04DF97B6800221A677B680022F5
:104620005A6700BF0837BD4680BD80B483B000AF75
:1046300078607B685B6818460C37BD465DF8047B84
:104640007047000090B58BB002AFF860B9607A6037
:104650000023BB6107F110031846FCF72BFDFB6834
:104660009B6E002B3ED0FB6803F16000FB6803F1FA
:104670006001FB6860331A46FDF7FDFAF861FB69DB
:10468000002B40F0BA80FB6803F16000FB6803F187
:104690006001FB6808331A46FDF7E7FEF861FB6925
:1046A000002B40F0AA80FB6803F16800FB6803F16F
:1046B0006801FB6868331A46FDF7DDFAF861FB69AB
:1046C000002B40F09A80FB6803F16800FB6803F15F
:1046D0006801FB6808331A46FDF7C7FEF861FB69FD
:1046E000002B8AE0BB695A1CBA610A2B02DD484BD9
:1046F000FB6182E0FB6803F16800FB685B68591EA0
:104700007B68BA68FEF739F9F861FB69002B74D150
:10471000FB685B68591E07F110007B68BA68FEF7FA
:104720002CF9F861FB69002B67D1FB6803F160008D
:10473000FB68683307F110021946FDF79CFAF8612F
:10474000FB69002B59D1FB6803F16000FB6803F1A2
:104750006001FB6808331A46FDF787FEF861FB69C4
:10476000002B4AD1FB6803F16000FB6803F1600194
:10477000FB6808331A46FEF734F9F861FB69002B31
:1047800003D0FB6913F10E0F36D1FB6913F10E0F45
:10479000A8D0FB6803F16000FB68603307F11002EA
:1047A0001946FDF768FAF861FB69002B25D1FB6813
:1047B00003F16000FB6803F16001FB6808331A46EF
:1047C000FDF753FEF861FB69002B16D1FB6803F17E
:1047D0006000FB6803F16001FB6803F11002FB68F5
:1047E00003F10804FB68483300932346FDF7D6FF26
:1047F000F861FB69002B00E000BF07F110031846C9
:10480000FCF76BFCFB6918462437BD4690BD00BF22
:1048100080BBFFFF90B591B004AFF860B9607A60DB
:104820006FF06D03FB627B681B681846FEF719FF8B
:10483000B8627B68DB887B62786AFFF7E0FC3862ED
:1048400007F118031846FCF735FC07F1100318466A
:10485000FCF730FC07F1180379681846FEF78CFF67
:10486000F862FB6A002B3CD107F11003396A184645
:10487000FCF755FCF862FB6A002B32D1796AF868C4
:10488000FCF74DFCF862FB6A002B2AD1796AB86804
:10489000FCF745FCF862FB6A002B22D1FB68186824
:1048A000FB6819687B681C68BB693A6902920193CE
:1048B000BB6A00937B6A2246FFF70AFAFB68186816
:1048C000FB681968BB681C687B681B683A690392BF
:1048D000BA6A02927A6A019200937B6A2246FEF7D4
:1048E000ECFE07F118031846FCF7F7FB07F110037D
:1048F0001846FCF7F2FBFB6A18463437BD4690BDFC
:1049000090B597B002AFF860B9607A603B606FF025
:104910006D03FB64BB68002B01D1AD4B53E1012259
:104920000121F868FFF7F0FC0346002B01D0A84BEB
:1049300049E107F140031846FCF7BCFB07F13803D7
:104940001846FCF7B7FB07F130031846FCF7B2FB3B
:1049500007F128031846FCF7ADFB07F120031846C2
:10496000FCF7A8FB07F118031846FCF7A3FB07F1B7
:1049700010031846FCF79EFBFB685A6807F14003DA
:1049800039681846FCF7B8FDF864FB6C002B40F062
:10499000E680FB6803F1080207F140031146184660
:1049A000FCF7B4FE0346002B03DB6FF00303FB644C
:1049B000D5E07A68B968F868FFF744FEF864FB6CE4
:1049C000002B40F0CC80FB6803F1600207F140014E
:1049D00007F140031846FDF74EF9F864FB6C002B15
:1049E00040F0BD80FB6803F1080207F1400107F1C8
:1049F00040031846FDF739FDF864FB6C002B40F0CE
:104A0000AE8007F1400207F1180311461846FCF783
:104A100057FCF864FB6C002B40F0A180FB6803F1AD
:104A2000200107F1380301221846FDF7FCF8F8646D
:104A3000FB6C002B40F09380FB6803F1280107F129
:104A4000300301221846FDF7EEF8F864FB6C002BEA
:104A500040F0858007F128007B68BA681C21FDF7CB
:104A60008CFFF864FB6C002B79D107F1300207F161
:104A7000380107F120031846FDF7FDF8F864FB6CD8
:104A8000002B6CD107F1280207F1200107F1200368
:104A90001846FDF7F0F8F864FB6C002B5FD1FB685B
:104AA00003F1180207F1200107F120031846FDF772
:104AB0006FF8F864FB6C002B51D1FB6803F108041C
:104AC000FB68483307F1200207F1400107F140007D
:104AD00000932346FDF762FEF864FB6C002B3ED189
:104AE000FB6803F11002FB6803F10804FB6848331C
:104AF00007F1400107F1100000932346FDF74EFE39
:104B0000F864FB6C002B2AD107F1180207F110039F
:104B100011461846FCF7FAFD0346002B02D02D4B38
:104B2000FB641CE0FB6803F16801FB6803F1080209
:104B300007F140031846FFF76DFEF864FB6C002B8D
:104B40000DD1FB685B68BB6407F14003BA6C396E3A
:104B50001846FCF700FDF864FB6C002B00BF07F162
:104B600038031846FCF7B9FA07F130031846FCF78A
:104B7000B4FA07F128031846FCF7AFFA07F120034F
:104B80001846FCF7AAFA07F140031846FCF7A5FA05
:104B900007F110031846FCF7A0FA07F118031846AE
:104BA000FCF79BFAFB6C002B0CD0FB6C13F17F0F16
:104BB00008DB40F24263084AF96C0848FFF72CFB17
:104BC000034600E0FB6C18465437BD4690BD00BF5D
:104BD00080BFFFFF80BCFFFFACBC000800BDFFFF33
:104BE00080B582B000AF78607B68002B28D07B68EE
:104BF00060331846FCF771FA7B6868331846FCF797
:104C00006CFA7B6848331846FCF767FA7B68183300
:104C10001846FCF762FA7B6828331846FCF75DFA01
:104C20007B6820331846FCF758FA7B681033184627
:104C3000FCF753FA7B6808331846FCF74EFA00E09D
:104C400000BF0837BD4680BDB0B59CB002AFF8606C
:104C5000B9607A603B6000237B66B34B07F11004B8
:104C60001D460FCD0FC40FCD0FC40FCD0FC495E857
:104C700003002060043421803623FB653B68002B51
:104C80000AD0BB6F002B07D03B681B68002B03D1F9
:104C9000BB6F1B68002B02D06FF003033FE10021C4
:104CA000F868FCF7D6FD0346002B1BDD0121786870
:104CB000FCF7CFFD0346002B14DDF9687868FCF79C
:104CC00025FD0346002B0DDA0121B868FCF7C1FD74
:104CD0000346002B06DDF968B868FCF717FD0346AC
:104CE000002B02DB6FF0030319E107F148031846BC
:104CF000FCF7E0F907F150031846FCF7DBF907F180
:104D00005003BA6879681846FCF7B5FF78667B6E81
:104D1000002B40F0F98007F1500107F15003012208
:104D20001846FCF780FF78667B6E002B40F0EC8025
:104D300007F150031846FCF793FB0346A7F85A30D7
:104D4000B7F85A30002B03D16FF003037B66DBE02A
:104D5000B7F85A2007F1500311461846FCF746FCF5
:104D600078667B6E002B40F0CF800023A7F862307E
:104D7000FB681B681B6803F00703012B40F0B98038
:104D80000123A7F86230B4E0B7F8623068333B44DF
:104D900013F8583C1A4607F1480311461846FCF729
:104DA0000CFB78667B6E002B40F0AE8007F1480369
:104DB000FA6819463868FDF707FD78667B6E002BA8
:104DC00040F0A28001213868FCF743FD0346002B28
:104DD00040F0898007F1500207F1480107F14800CF
:104DE000BB6F0093FB68FDF7D9FC78667B6E002BE8
:104DF00040F08A800123A7F8603062E007F14803A1
:104E000001211846FCF725FD0346002B60D007F171
:104E1000480107F1480301221846FCF7DCFE7866DA
:104E20007B6E002B70D107F14803FA681946386889
:104E3000FDF7CAFC78667B6E002B65D101213868CE
:104E4000FCF707FD0346012B11D1F9683868FCF720
:104E50005DFC0346B3F1FF3F09D13B68FA680021CE
:104E6000B86FFDF762F878667B6E002B4CE007F1B7
:104E7000480107F1480301221846FCF7D4FE786682
:104E80007B6E002B40D107F1480207F1480107F182
:104E900048031846FCF7EFFE78667B6E002B33D193
:104EA00007F1480107F14803FA681846FDF7DDFAF3
:104EB00078667B6E002B27D1B7F860300133A7F8F6
:104EC0006030B7F86020B7F85A309A4296D900E0BF
:104ED00000BF07F1480301211846FCF7BAFC03465E
:104EE000002B0DD100E000BFB7F862300133A7F806
:104EF0006230B7F86230FA6D9A423FF645AF00E093
:104F000000BF6FF003037B6607F148031846FCF708
:104F1000E4F807F150031846FCF7DFF87B6E1846FB
:104F20006837BD46B0BD00BF94C0000880B58AB0E8
:104F300000AFF860B9607A603B6000237B623B6839
:104F4000002B06D000213868FCF783FC0346002BB9
:104F500002D06FF0030372E00121F868FCF779FCDE
:104F60000346002B0DDD0121B868FCF772FC0346F7
:104F7000002B06DD00217868FCF76BFC0346002B54
:104F800002D16FF003035AE007F11C031846FCF747
:104F900091F807F114031846FCF78CF807F11C038D
:104FA0000122F9681846FCF73EFE78627B6A002B06
:104FB0003AD107F114030122B9681846FCF733FE11
:104FC00078627B6A002B2FD107F1140207F11C03D2
:104FD00019463868FDF7F8FB78627B6A002B23D10D
:104FE00007F1140207F11C0107F11C031846FCF736
:104FF00042FE78627B6A002B16D107F11C0207F192
:105000001C003B680021FCF790FF78627B6A002B54
:105010000AD107F11C031A4679683868FDF7E1FCEC
:1050200078627B6A002B00BF07F11C031846FCF76F
:1050300054F807F114031846FCF74FF87B6A18463A
:105040002837BD4680BD000080B483B000AF002388
:105050007B60104B5B6C0F4A43F4804353640D4BF1
:105060005B6C03F480437B607B6800233B60094BEF
:105070001B6C084A43F080531364064B1B6C03F00F
:1050800080533B603B6800BF0C37BD465DF8047B36
:10509000704700BF0038024080B58CB000AF786028
:1050A00007F11C0300221A605A609A60DA601A61E4
:1050B0007B681B683A4A934235D10023BB61394B68
:1050C0005B6C384A43F010035364364B5B6C03F05F
:1050D0001003BB61BB6900237B61324B1B6B314A00
:1050E00043F0010313632F4B1B6B03F001037B6140
:1050F0007B694FF4C063FB6102233B6200237B6248
:105100000323BB620723FB6207F11C0319462648F1
:1051100000F0AAFB00220121252000F0DCFA252066
:1051200000F0F5FA38E07B681B68204A934233D1DF
:1051300000233B611B4B1B6C1A4A43F4003313647E
:10514000184B1B6C03F400333B613B690023FB608D
:10515000144B1B6B134A43F001031363114B1B6B7E
:1051600003F00103FB60FB680C23FB6102233B623D
:1051700000237B620323BB620723FB6207F11C034E
:105180001946094800F070FB00220121262000F09A
:10519000A2FA262000F0BBFA00BF3037BD4680BD22
:1051A000001001400038024000000240004400406E
:1051B00080B400AF00BFFDE780B400AF00BFFDE7E3
:1051C00080B400AF00BFFDE780B400AF00BFFDE7D3
:1051D00080B400AF00BFFDE780B400AF00BFBD46A4
:1051E0005DF8047B704780B400AF00BFBD465DF83A
:1051F000047B704780B400AF00BFBD465DF8047B00
:10520000704780B500AF00F06BF900BF80BD0000B3
:1052100080B500AF024801F0DFF900BF80BD00BFDC
:105220000003002080B500AF024801F0D5F900BFAF
:1052300080BD00BF4803002080B400AF01231846A2
:10524000BD465DF8047B704780B582B000AF7860E2
:10525000396003F0A1FB034616221A604FF0FF33BA
:1052600018460837BD4680BD80B582B000AF786073
:105270004FF0FF317868FFF7E7FF00BFFDE780B52B
:1052800086B000AFF860B9607A6000237B610AE005
:10529000AFF300800146BB685A1CBA60CAB21A70EC
:1052A0007B6901337B617A697B689A42F0DB7B68BA
:1052B00018461837BD4680BD80B586B000AFF8608F
:1052C000B9607A6000237B6109E0BB685A1CBA6050
:1052D0001B781846FEF744FF7B6901337B617A69CE
:1052E0007B689A42F1DB7B6818461837BD4680BD63
:1052F00080B483B000AF78604FF0FF3318460C37AE
:10530000BD465DF8047B704780B483B000AF786021
:1053100039603B684FF400525A60002318460C373E
:10532000BD465DF8047B704780B483B000AF786001
:10533000012318460C37BD465DF8047B704780B4E6
:1053400085B000AFF860B9607A6000231846143762
:10535000BD465DF8047B704780B586B000AF7860CD
:10536000144A154BD31A7B617B693B61134B1B6855
:10537000002B02D1114B124A1A60104B1A687B683D
:1053800013443A699A4207D203F006FB03460C2203
:105390001A604FF0FF3309E0084B1B68FB60074BB6
:1053A0001A687B681344054A1360FB68184618376F
:1053B000BD4680BD000002200004000090030020D4
:1053C000E804002080B400AF064BD3F88830054ACB
:1053D00043F47003C2F8883000BFBD465DF8047B1B
:1053E000704700BF00ED00E0DFF834D0FFF7EAFFC0
:1053F0000C480D490D4A002302E0D458C450043330
:10540000C4188C42F9D30A4A0A4C002301E0136005
:105410000432A242FBD303F0C5FAFEF77DFD7047CC
:105420000000022000000020D4010020A4C60008D3
:10543000D4010020E4040020FEE7000080B500AFA6
:105440000E4B1B680D4A43F4007313600B4B1B6833
:105450000A4A43F480631360084B1B68074A43F40D
:1054600080731360032000F02BF9002000F008F88F
:10547000FFF7EAFD0023184680BD00BF003C024054
:1054800080B582B000AF7860124B1A68124B1B785F
:1054900019464FF47A73B3FBF1F3B2FBF3F31846FA
:1054A00000F043F90346002B01D001230EE07B6896
:1054B0000F2B0AD8002279684FF0FF3000F00BF96B
:1054C000064A7B681360002300E001231846083772
:1054D000BD4680BD00000020080000200400002020
:1054E00080B400AF064B1B781A46064B1B6813446A
:1054F000044A136000BFBD465DF8047B704700BFDF
:10550000080000209403002080B400AF034B1B6808
:105510001846BD465DF8047B704700BF9403002029
:1055200080B485B000AF78607B6803F00703FB6050
:105530000C4BDB68BB60BA684FF6FF031340BB60DF
:10554000FB681A02BB68134343F0BF6343F40033A4
:10555000BB60044ABB68D36000BF1437BD465DF82A
:10556000047B704700ED00E080B400AF044BDB68C3
:105570001B0A03F007031846BD465DF8047B70471D
:1055800000ED00E080B483B000AF0346FB7197F9F3
:105590000730002B0BDBFB7903F01F02074997F95B
:1055A00007305B09012000FA02F241F8232000BF16
:1055B0000C37BD465DF8047B704700BF00E100E09A
:1055C00080B483B000AF03463960FB7197F90730B0
:1055D000002B0ADB3B68DAB20C4997F9073012015D
:1055E000D2B20B4483F800230AE03B68DAB20849E0
:1055F000FB7903F00F03043B1201D2B20B441A767D
:1056000000BF0C37BD465DF8047B704700E100E049
:1056100000ED00E080B489B000AFF860B9607A6056
:10562000FB6803F00703FB61FB69C3F10703042B6D
:1056300028BF0423BB61FB690433062B02D9FB6935
:10564000033B00E000237B614FF0FF32BB6902FAAD
:1056500003F3DA43BB681A407B699A404FF0FF318D
:105660007B6901FA03F3D9437B680B401343184667
:105670002437BD465DF8047B7047000080B582B0DA
:1056800000AF78607B68013BB3F1807F01D30123D9
:105690000FE00A4A7B68013B53600F214FF0FF3057
:1056A000FFF78EFF054B00229A60044B07221A6019
:1056B000002318460837BD4680BD00BF10E000E05B
:1056C00080B582B000AF78607868FFF729FF00BF2F
:1056D0000837BD4680BD80B586B000AF0346B960CF
:1056E0007A60FB7300237B61FFF73EFF78617A6885
:1056F000B9687869FFF78EFF024697F90F301146B7
:105700001846FFF75DFF00BF1837BD4680BD80B566
:1057100082B000AF0346FB7197F907301846FFF7D8
:1057200031FF00BF0837BD4680BD80B582B000AFF5
:1057300078607868FFF7A2FF034618460837BD4631
:1057400080BD80B584B000AF78607B689B6DFB60E6
:10575000FFF7DAFEB8607B6893F83530DBB2022BD6
:1057600008D07B6880225A657B68002283F8342049
:10577000012352E07B681B681A687B681B6822F073
:1057800016021A607B681B685A697B681B6822F0E6
:1057900080025A617B681B6C002B03D17B689B6C79
:1057A000002B07D07B681B681A687B681B6822F097
:1057B00008021A607B681B681A687B681B6822F005
:1057C00001021A6013E0FFF79FFE0246BB68D31A7E
:1057D000052B0CD97B6820225A657B68032283F84D
:1057E00035207B68002283F83420032315E07B6892
:1057F0001B681B6803F00103002BE4D17B68DB6DA1
:105800003F229A40FB689A607B68012283F835202A
:105810007B68002283F83420002318461037BD46E9
:1058200080BD80B483B000AF78607B6893F835307A
:10583000DBB2022B04D07B6880225A6501230CE086
:105840007B68052283F835207B681B681A687B68B3
:105850001B6822F001021A60002318460C37BD466F
:105860005DF8047B7047000080B489B000AF7860B9
:10587000396000237B6100233B610023BB6100236F
:10588000FB6159E10122FB6902FA03F37B613B688A
:105890001B687A6913403B613A697B699A4240F020
:1058A00048813B685B6803F00303012B05D03B682C
:1058B0005B6803F00303022B30D17B689B68BB61FC
:1058C000FB695B00032202FA03F3DB43BA6913406E
:1058D000BB613B68DA68FB695B0002FA03F3BA69F3
:1058E0001343BB617B68BA699A607B685B68BB6184
:1058F0000122FB6902FA03F3DB43BA691340BB617F
:105900003B685B681B0903F00102FB6902FA03F3C1
:10591000BA691343BB617B68BA695A603B685B68CC
:1059200003F00303032B17D07B68DB68BB61FB69C3
:105930005B00032202FA03F3DB43BA691340BB6145
:105940003B689A68FB695B0002FA03F3BA69134388
:10595000BB617B68BA69DA603B685B6803F003038C
:10596000022B23D1FB69DA087B68083253F8223016
:10597000BB61FB6903F007039B000F2202FA03F3EC
:10598000DB43BA691340BB613B681A69FB6903F0EA
:1059900007039B0002FA03F3BA691343BB61FB6977
:1059A000DA087B680832B96943F822107B681B6803
:1059B000BB61FB695B00032202FA03F3DB43BA69B4
:1059C0001340BB613B685B6803F00302FB695B004B
:1059D00002FA03F3BA691343BB617B68BA691A60C0
:1059E0003B685B6803F44033002B00F0A280002387
:1059F000FB60574B5B6C564A43F480435364544BF3
:105A00005B6C03F48043FB60FB68524AFB699B08B4
:105A1000023352F82330BB61FB6903F003039B00A0
:105A20000F2202FA03F3DB43BA691340BB617B68C0
:105A3000494A934219D07B68484A934213D07B6805
:105A4000474A93420DD07B68464A934207D07B6811
:105A5000454A934201D1042308E0072306E00323CB
:105A600004E0022302E0012300E00023FA6902F0CF
:105A7000030292009340BA691343BB613549FB6945
:105A80009B080233BA6941F82320384B9B68BB61FD
:105A90003B69DB43BA691340BB613B685B6803F455
:105AA0008013002B03D0BA693B691343BB612F4AB3
:105AB000BB6993602D4BDB68BB613B69DB43BA6913
:105AC0001340BB613B685B6803F40013002B03D0F9
:105AD000BA693B691343BB61244ABB69D360234B5A
